{
  "contractName": "Donor",
  "abi": [
    {
      "constant": true,
      "inputs": [
        {
          "internalType": "uint256",
          "name": "",
          "type": "uint256"
        }
      ],
      "name": "donorMapping",
      "outputs": [
        {
          "internalType": "uint256",
          "name": "donorId",
          "type": "uint256"
        },
        {
          "internalType": "string",
          "name": "name",
          "type": "string"
        },
        {
          "internalType": "string",
          "name": "bloodGroup",
          "type": "string"
        },
        {
          "internalType": "uint256",
          "name": "mobNumber",
          "type": "uint256"
        },
        {
          "internalType": "uint256",
          "name": "age",
          "type": "uint256"
        },
        {
          "internalType": "string",
          "name": "location",
          "type": "string"
        },
        {
          "internalType": "string",
          "name": "email",
          "type": "string"
        }
      ],
      "payable": false,
      "stateMutability": "view",
      "type": "function"
    },
    {
      "constant": true,
      "inputs": [],
      "name": "getDonorCount",
      "outputs": [
        {
          "internalType": "uint256",
          "name": "",
          "type": "uint256"
        }
      ],
      "payable": false,
      "stateMutability": "view",
      "type": "function"
    },
    {
      "constant": false,
      "inputs": [
        {
          "internalType": "string",
          "name": "_name",
          "type": "string"
        },
        {
          "internalType": "string",
          "name": "_bloodGroup",
          "type": "string"
        },
        {
          "internalType": "uint256",
          "name": "_mobNumber",
          "type": "uint256"
        },
        {
          "internalType": "uint256",
          "name": "_age",
          "type": "uint256"
        },
        {
          "internalType": "string",
          "name": "_location",
          "type": "string"
        },
        {
          "internalType": "string",
          "name": "_email",
          "type": "string"
        }
      ],
      "name": "addDonorData",
      "outputs": [],
      "payable": false,
      "stateMutability": "nonpayable",
      "type": "function"
    }
  ],
  "bytecode": "0x608060405234801561001057600080fd5b506108bc806100206000396000f3fe608060405234801561001057600080fd5b50600436106100415760003560e01c806369bc2f1e14610046578063cf94495a14610064578063ec60dfbf1461009a575b600080fd5b61004e6100b6565b60405161005b91906106ea565b60405180910390f35b61007e60048036036100799190810190610679565b6100c0565b6040516100919796959493929190610705565b60405180910390f35b6100b460048036036100af9190810190610590565b610362565b005b6000600154905090565b6000602052806000526040600020600091509050806000015490806001018054600181600116156101000203166002900480601f0160208091040260200160405190810160405280929190818152602001828054600181600116156101000203166002900480156101725780601f1061014757610100808354040283529160200191610172565b820191906000526020600020905b81548152906001019060200180831161015557829003601f168201915b505050505090806002018054600181600116156101000203166002900480601f0160208091040260200160405190810160405280929190818152602001828054600181600116156101000203166002900480156102105780601f106101e557610100808354040283529160200191610210565b820191906000526020600020905b8154815290600101906020018083116101f357829003601f168201915b505050505090806003015490806004015490806005018054600181600116156101000203166002900480601f0160208091040260200160405190810160405280929190818152602001828054600181600116156101000203166002900480156102ba5780601f1061028f576101008083540402835291602001916102ba565b820191906000526020600020905b81548152906001019060200180831161029d57829003601f168201915b505050505090806006018054600181600116156101000203166002900480601f0160208091040260200160405190810160405280929190818152602001828054600181600116156101000203166002900480156103585780601f1061032d57610100808354040283529160200191610358565b820191906000526020600020905b81548152906001019060200180831161033b57829003601f168201915b5050505050905087565b60015460008060015481526020019081526020016000206000018190555085600080600154815260200190815260200160002060010190805190602001906103ab929190610482565b5084600080600154815260200190815260200160002060020190805190602001906103d7929190610482565b508360008060015481526020019081526020016000206003018190555082600080600154815260200190815260200160002060040181905550816000806001548152602001908152602001600020600501908051906020019061043b929190610482565b508060008060015481526020019081526020016000206006019080519060200190610467929190610482565b50600160008154809291906001019190505550505050505050565b828054600181600116156101000203166002900490600052602060002090601f016020900481019282601f106104c357805160ff19168380011785556104f1565b828001600101855582156104f1579182015b828111156104f05782518255916020019190600101906104d5565b5b5090506104fe9190610502565b5090565b61052491905b80821115610520576000816000905550600101610508565b5090565b90565b600082601f83011261053857600080fd5b813561054b610546826107bd565b610790565b9150808252602083016020830185838301111561056757600080fd5b61057283828461080f565b50505092915050565b60008135905061058a81610862565b92915050565b60008060008060008060c087890312156105a957600080fd5b600087013567ffffffffffffffff8111156105c357600080fd5b6105cf89828a01610527565b965050602087013567ffffffffffffffff8111156105ec57600080fd5b6105f889828a01610527565b955050604061060989828a0161057b565b945050606061061a89828a0161057b565b935050608087013567ffffffffffffffff81111561063757600080fd5b61064389828a01610527565b92505060a087013567ffffffffffffffff81111561066057600080fd5b61066c89828a01610527565b9150509295509295509295565b60006020828403121561068b57600080fd5b60006106998482850161057b565b91505092915050565b60006106ad826107e9565b6106b781856107f4565b93506106c781856020860161081e565b6106d081610851565b840191505092915050565b6106e481610805565b82525050565b60006020820190506106ff60008301846106db565b92915050565b600060e08201905061071a600083018a6106db565b818103602083015261072c81896106a2565b9050818103604083015261074081886106a2565b905061074f60608301876106db565b61075c60808301866106db565b81810360a083015261076e81856106a2565b905081810360c083015261078281846106a2565b905098975050505050505050565b6000604051905081810181811067ffffffffffffffff821117156107b357600080fd5b8060405250919050565b600067ffffffffffffffff8211156107d457600080fd5b601f19601f8301169050602081019050919050565b600081519050919050565b600082825260208201905092915050565b6000819050919050565b82818337600083830152505050565b60005b8381101561083c578082015181840152602081019050610821565b8381111561084b576000848401525b50505050565b6000601f19601f8301169050919050565b61086b81610805565b811461087657600080fd5b5056fea365627a7a72315820c28cf9bf77b78b33a66307a68a1bfd5947740cb96de00efd2b2c7fe319cb090a6c6578706572696d656e74616cf564736f6c63430005100040",
  "source": "// SPDX-License-Identifier: MIT\npragma solidity >=0.4.21 <0.7.0;\npragma experimental ABIEncoderV2;\n\ncontract Donor {\n    mapping(uint256 => DonorData) public donorMapping;\n    uint256 internal donorCount;\n    struct DonorData {\n        uint256 donorId;\n        string name;\n        string bloodGroup;\n        uint256 mobNumber;\n        uint256 age;\n        string location;\n        string email;\n    }\n\n    function getDonorCount() public view returns (uint256) {\n        return donorCount;\n    }\n\n    function addDonorData(\n        string memory _name,\n        string memory _bloodGroup,\n        uint256 _mobNumber,\n        uint256 _age,\n        string memory _location,\n        string memory _email\n    ) public {\n        donorMapping[donorCount].donorId = donorCount;\n        donorMapping[donorCount].name = _name;\n        donorMapping[donorCount].bloodGroup = _bloodGroup;\n        donorMapping[donorCount].mobNumber = _mobNumber;\n        donorMapping[donorCount].age = _age;\n        donorMapping[donorCount].location = _location;\n        donorMapping[donorCount].email = _email;\n        // create enum\n        donorCount++;\n    }\n}\n",
  "sourcePath": "F:\\Workspace\\Ethereum\\newaltf4\\contracts\\Donor.sol",
  "compiler": {
    "name": "solc",
    "version": "0.5.16+commit.9c3226ce.Emscripten.clang"
  },
  "schemaVersion": "3.1.0",
  "updatedAt": "2020-07-26T18:02:19.348Z",
  "networkType": "ethereum",
  "devdoc": {
    "methods": {}
  },
  "userdoc": {
    "methods": {}
  }
}