{
  "contractName": "Donor",
  "abi": [
    {
      "constant": true,
      "inputs": [
        {
          "internalType": "uint256",
          "name": "",
          "type": "uint256"
        }
      ],
      "name": "donorMapping",
      "outputs": [
        {
          "internalType": "uint256",
          "name": "donorId",
          "type": "uint256"
        },
        {
          "internalType": "string",
          "name": "name",
          "type": "string"
        },
        {
          "internalType": "string",
          "name": "bloodGroup",
          "type": "string"
        },
        {
          "internalType": "uint256",
          "name": "mobNumber",
          "type": "uint256"
        },
        {
          "internalType": "uint256",
          "name": "age",
          "type": "uint256"
        },
        {
          "internalType": "string",
          "name": "location",
          "type": "string"
        }
      ],
      "payable": false,
      "stateMutability": "view",
      "type": "function"
    },
    {
      "constant": true,
      "inputs": [
        {
          "internalType": "uint256",
          "name": "_donorId",
          "type": "uint256"
        }
      ],
      "name": "getDonorData",
      "outputs": [
        {
          "components": [
            {
              "internalType": "uint256",
              "name": "donorId",
              "type": "uint256"
            },
            {
              "internalType": "string",
              "name": "name",
              "type": "string"
            },
            {
              "internalType": "string",
              "name": "bloodGroup",
              "type": "string"
            },
            {
              "internalType": "uint256",
              "name": "mobNumber",
              "type": "uint256"
            },
            {
              "internalType": "uint256",
              "name": "age",
              "type": "uint256"
            },
            {
              "internalType": "string",
              "name": "location",
              "type": "string"
            }
          ],
          "internalType": "struct Donor.DonorData",
          "name": "",
          "type": "tuple"
        }
      ],
      "payable": false,
      "stateMutability": "view",
      "type": "function"
    },
    {
      "constant": false,
      "inputs": [
        {
          "internalType": "string",
          "name": "_name",
          "type": "string"
        },
        {
          "internalType": "string",
          "name": "_bloodGroup",
          "type": "string"
        },
        {
          "internalType": "uint256",
          "name": "_mobNumber",
          "type": "uint256"
        },
        {
          "internalType": "uint256",
          "name": "_age",
          "type": "uint256"
        },
        {
          "internalType": "string",
          "name": "_location",
          "type": "string"
        }
      ],
      "name": "addDonorData",
      "outputs": [],
      "payable": false,
      "stateMutability": "nonpayable",
      "type": "function"
    }
  ],
  "bytecode": "0x608060405234801561001057600080fd5b50610bb9806100206000396000f3fe608060405234801561001057600080fd5b50600436106100415760003560e01c8063cbc097b414610046578063cf94495a14610076578063fe8be1d8146100ab575b600080fd5b610060600480360361005b9190810190610834565b6100c7565b60405161006d91906109e4565b60405180910390f35b610090600480360361008b9190810190610834565b61033a565b6040516100a296959493929190610a06565b60405180910390f35b6100c560048036036100c09190810190610775565b61053e565b005b6100cf610631565b60008211610112576040517f08c379a0000000000000000000000000000000000000000000000000000000008152600401610109906109c4565b60405180910390fd5b6000808381526020019081526020016000206040518060c001604052908160008201548152602001600182018054600181600116156101000203166002900480601f0160208091040260200160405190810160405280929190818152602001828054600181600116156101000203166002900480156101d25780601f106101a7576101008083540402835291602001916101d2565b820191906000526020600020905b8154815290600101906020018083116101b557829003601f168201915b50505050508152602001600282018054600181600116156101000203166002900480601f0160208091040260200160405190810160405280929190818152602001828054600181600116156101000203166002900480156102745780601f1061024957610100808354040283529160200191610274565b820191906000526020600020905b81548152906001019060200180831161025757829003601f168201915b505050505081526020016003820154815260200160048201548152602001600582018054600181600116156101000203166002900480601f01602080910402602001604051908101604052809291908181526020018280546001816001161561010002031660029004801561032a5780601f106102ff5761010080835404028352916020019161032a565b820191906000526020600020905b81548152906001019060200180831161030d57829003601f168201915b5050505050815250509050919050565b6000602052806000526040600020600091509050806000015490806001018054600181600116156101000203166002900480601f0160208091040260200160405190810160405280929190818152602001828054600181600116156101000203166002900480156103ec5780601f106103c1576101008083540402835291602001916103ec565b820191906000526020600020905b8154815290600101906020018083116103cf57829003601f168201915b505050505090806002018054600181600116156101000203166002900480601f01602080910402602001604051908101604052809291908181526020018280546001816001161561010002031660029004801561048a5780601f1061045f5761010080835404028352916020019161048a565b820191906000526020600020905b81548152906001019060200180831161046d57829003601f168201915b505050505090806003015490806004015490806005018054600181600116156101000203166002900480601f0160208091040260200160405190810160405280929190818152602001828054600181600116156101000203166002900480156105345780601f1061050957610100808354040283529160200191610534565b820191906000526020600020905b81548152906001019060200180831161051757829003601f168201915b5050505050905086565b6001546000806001548152602001908152602001600020600001819055508460008060015481526020019081526020016000206001019080519060200190610587929190610667565b5083600080600154815260200190815260200160002060020190805190602001906105b3929190610667565b5082600080600154815260200190815260200160002060030181905550816000806001548152602001908152602001600020600401819055508060008060015481526020019081526020016000206005019080519060200190610617929190610667565b506001600081548092919060010191905055505050505050565b6040518060c001604052806000815260200160608152602001606081526020016000815260200160008152602001606081525090565b828054600181600116156101000203166002900490600052602060002090601f016020900481019282601f106106a857805160ff19168380011785556106d6565b828001600101855582156106d6579182015b828111156106d55782518255916020019190600101906106ba565b5b5090506106e391906106e7565b5090565b61070991905b808211156107055760008160009055506001016106ed565b5090565b90565b600082601f83011261071d57600080fd5b813561073061072b82610aa9565b610a7c565b9150808252602083016020830185838301111561074c57600080fd5b610757838284610b0c565b50505092915050565b60008135905061076f81610b5f565b92915050565b600080600080600060a0868803121561078d57600080fd5b600086013567ffffffffffffffff8111156107a757600080fd5b6107b38882890161070c565b955050602086013567ffffffffffffffff8111156107d057600080fd5b6107dc8882890161070c565b94505060406107ed88828901610760565b93505060606107fe88828901610760565b925050608086013567ffffffffffffffff81111561081b57600080fd5b6108278882890161070c565b9150509295509295909350565b60006020828403121561084657600080fd5b600061085484828501610760565b91505092915050565b600061086882610ad5565b6108728185610ae0565b9350610882818560208601610b1b565b61088b81610b4e565b840191505092915050565b60006108a182610ad5565b6108ab8185610af1565b93506108bb818560208601610b1b565b6108c481610b4e565b840191505092915050565b60006108dc601383610af1565b91507f446f6e6f7220696420497320696e76616c6964000000000000000000000000006000830152602082019050919050565b600060c08301600083015161092760008601826109a6565b506020830151848203602086015261093f828261085d565b91505060408301518482036040860152610959828261085d565b915050606083015161096e60608601826109a6565b50608083015161098160808601826109a6565b5060a083015184820360a0860152610999828261085d565b9150508091505092915050565b6109af81610b02565b82525050565b6109be81610b02565b82525050565b600060208201905081810360008301526109dd816108cf565b9050919050565b600060208201905081810360008301526109fe818461090f565b905092915050565b600060c082019050610a1b60008301896109b5565b8181036020830152610a2d8188610896565b90508181036040830152610a418187610896565b9050610a5060608301866109b5565b610a5d60808301856109b5565b81810360a0830152610a6f8184610896565b9050979650505050505050565b6000604051905081810181811067ffffffffffffffff82111715610a9f57600080fd5b8060405250919050565b600067ffffffffffffffff821115610ac057600080fd5b601f19601f8301169050602081019050919050565b600081519050919050565b600082825260208201905092915050565b600082825260208201905092915050565b6000819050919050565b82818337600083830152505050565b60005b83811015610b39578082015181840152602081019050610b1e565b83811115610b48576000848401525b50505050565b6000601f19601f8301169050919050565b610b6881610b02565b8114610b7357600080fd5b5056fea365627a7a723158201e239115cebeb8b83e2583a390287ae920f3360faa398e2377d0d94a4cd310576c6578706572696d656e74616cf564736f6c63430005100040",
  "source": "// SPDX-License-Identifier: MIT\npragma solidity >=0.4.21 <0.7.0;\npragma experimental ABIEncoderV2;\n\ncontract Donor {\n\n    mapping(uint256 => DonorData) public donorMapping;\n    uint256 donorCount;\n    struct DonorData {\n        uint256 donorId;\n        string name;\n        string bloodGroup;\n        uint256 mobNumber;\n        uint256 age;\n        string location;\n    }\n\n    function getDonorData(uint256 _donorId)\n        public\n        view\n        returns (DonorData memory)\n    {\n        require(_donorId > 0, \"Donor id Is invalid\");\n        return (donorMapping[_donorId]);\n    }\n\n    function addDonorData(\n        string memory _name,\n        string memory _bloodGroup,\n        uint256 _mobNumber,\n        uint256 _age,\n        string memory _location\n    ) public {\n        donorMapping[donorCount].donorId = donorCount;\n        donorMapping[donorCount].name = _name;\n        donorMapping[donorCount].bloodGroup = _bloodGroup;\n        donorMapping[donorCount].mobNumber = _mobNumber;\n        donorMapping[donorCount].age = _age;\n        donorMapping[donorCount].location = _location;\n        // create enum\n        donorCount++;\n    }\n}\n",
  "sourcePath": "F:\\Workspace\\Ethereum\\newaltf4\\contracts\\Donor.sol",
  "compiler": {
    "name": "solc",
    "version": "0.5.16+commit.9c3226ce.Emscripten.clang"
  },
  "schemaVersion": "3.1.0",
  "updatedAt": "2020-07-22T19:59:11.016Z",
  "devdoc": {
    "methods": {}
  },
  "userdoc": {
    "methods": {}
  }
}