{
  "contractName": "Donor",
  "abi": [
    {
      "constant": true,
      "inputs": [
        {
          "internalType": "uint256",
          "name": "",
          "type": "uint256"
        }
      ],
      "name": "donorMapping",
      "outputs": [
        {
          "internalType": "uint256",
          "name": "donorId",
          "type": "uint256"
        },
        {
          "internalType": "string",
          "name": "name",
          "type": "string"
        },
        {
          "internalType": "string",
          "name": "bloodGroup",
          "type": "string"
        },
        {
          "internalType": "uint256",
          "name": "mobNumber",
          "type": "uint256"
        },
        {
          "internalType": "uint256",
          "name": "age",
          "type": "uint256"
        },
        {
          "internalType": "string",
          "name": "location",
          "type": "string"
        }
      ],
      "payable": false,
      "stateMutability": "view",
      "type": "function"
    },
    {
      "constant": true,
      "inputs": [],
      "name": "getDonorCount",
      "outputs": [
        {
          "internalType": "uint256",
          "name": "",
          "type": "uint256"
        }
      ],
      "payable": false,
      "stateMutability": "view",
      "type": "function"
    },
    {
      "constant": false,
      "inputs": [
        {
          "internalType": "string",
          "name": "_name",
          "type": "string"
        },
        {
          "internalType": "string",
          "name": "_bloodGroup",
          "type": "string"
        },
        {
          "internalType": "uint256",
          "name": "_mobNumber",
          "type": "uint256"
        },
        {
          "internalType": "uint256",
          "name": "_age",
          "type": "uint256"
        },
        {
          "internalType": "string",
          "name": "_location",
          "type": "string"
        }
      ],
      "name": "addDonorData",
      "outputs": [],
      "payable": false,
      "stateMutability": "nonpayable",
      "type": "function"
    }
  ],
  "bytecode": "0x608060405234801561001057600080fd5b506107b1806100206000396000f3fe608060405234801561001057600080fd5b50600436106100415760003560e01c806369bc2f1e14610046578063cf94495a14610064578063fe8be1d814610099575b600080fd5b61004e6100b5565b60405161005b91906105f4565b60405180910390f35b61007e60048036036100799190810190610583565b6100bf565b6040516100909695949392919061060f565b60405180910390f35b6100b360048036036100ae91908101906104c4565b6102c3565b005b6000600154905090565b6000602052806000526040600020600091509050806000015490806001018054600181600116156101000203166002900480601f0160208091040260200160405190810160405280929190818152602001828054600181600116156101000203166002900480156101715780601f1061014657610100808354040283529160200191610171565b820191906000526020600020905b81548152906001019060200180831161015457829003601f168201915b505050505090806002018054600181600116156101000203166002900480601f01602080910402602001604051908101604052809291908181526020018280546001816001161561010002031660029004801561020f5780601f106101e45761010080835404028352916020019161020f565b820191906000526020600020905b8154815290600101906020018083116101f257829003601f168201915b505050505090806003015490806004015490806005018054600181600116156101000203166002900480601f0160208091040260200160405190810160405280929190818152602001828054600181600116156101000203166002900480156102b95780601f1061028e576101008083540402835291602001916102b9565b820191906000526020600020905b81548152906001019060200180831161029c57829003601f168201915b5050505050905086565b600154600080600154815260200190815260200160002060000181905550846000806001548152602001908152602001600020600101908051906020019061030c9291906103b6565b5083600080600154815260200190815260200160002060020190805190602001906103389291906103b6565b508260008060015481526020019081526020016000206003018190555081600080600154815260200190815260200160002060040181905550806000806001548152602001908152602001600020600501908051906020019061039c9291906103b6565b506001600081548092919060010191905055505050505050565b828054600181600116156101000203166002900490600052602060002090601f016020900481019282601f106103f757805160ff1916838001178555610425565b82800160010185558215610425579182015b82811115610424578251825591602001919060010190610409565b5b5090506104329190610436565b5090565b61045891905b8082111561045457600081600090555060010161043c565b5090565b90565b600082601f83011261046c57600080fd5b813561047f61047a826106b2565b610685565b9150808252602083016020830185838301111561049b57600080fd5b6104a6838284610704565b50505092915050565b6000813590506104be81610757565b92915050565b600080600080600060a086880312156104dc57600080fd5b600086013567ffffffffffffffff8111156104f657600080fd5b6105028882890161045b565b955050602086013567ffffffffffffffff81111561051f57600080fd5b61052b8882890161045b565b945050604061053c888289016104af565b935050606061054d888289016104af565b925050608086013567ffffffffffffffff81111561056a57600080fd5b6105768882890161045b565b9150509295509295909350565b60006020828403121561059557600080fd5b60006105a3848285016104af565b91505092915050565b60006105b7826106de565b6105c181856106e9565b93506105d1818560208601610713565b6105da81610746565b840191505092915050565b6105ee816106fa565b82525050565b600060208201905061060960008301846105e5565b92915050565b600060c08201905061062460008301896105e5565b818103602083015261063681886105ac565b9050818103604083015261064a81876105ac565b905061065960608301866105e5565b61066660808301856105e5565b81810360a083015261067881846105ac565b9050979650505050505050565b6000604051905081810181811067ffffffffffffffff821117156106a857600080fd5b8060405250919050565b600067ffffffffffffffff8211156106c957600080fd5b601f19601f8301169050602081019050919050565b600081519050919050565b600082825260208201905092915050565b6000819050919050565b82818337600083830152505050565b60005b83811015610731578082015181840152602081019050610716565b83811115610740576000848401525b50505050565b6000601f19601f8301169050919050565b610760816106fa565b811461076b57600080fd5b5056fea365627a7a72315820697bad1290ea2e1abf0d7ea2c78a343559a98f213947e4595b892351ea0d56806c6578706572696d656e74616cf564736f6c63430005100040",
  "source": "// SPDX-License-Identifier: MIT\npragma solidity >=0.4.21 <0.7.0;\npragma experimental ABIEncoderV2;\n\ncontract Donor {\n    mapping(uint256 => DonorData) public donorMapping;\n    uint256 internal donorCount;\n    struct DonorData {\n        uint256 donorId;\n        string name;\n        string bloodGroup;\n        uint256 mobNumber;\n        uint256 age;\n        string location;\n    }\n\n    function getDonorCount() public view returns (uint256) {\n        return donorCount;\n    }\n\n    function addDonorData(\n        string memory _name,\n        string memory _bloodGroup,\n        uint256 _mobNumber,\n        uint256 _age,\n        string memory _location\n    ) public {\n        donorMapping[donorCount].donorId = donorCount;\n        donorMapping[donorCount].name = _name;\n        donorMapping[donorCount].bloodGroup = _bloodGroup;\n        donorMapping[donorCount].mobNumber = _mobNumber;\n        donorMapping[donorCount].age = _age;\n        donorMapping[donorCount].location = _location;\n        // create enum\n        donorCount++;\n    }\n}\n",
  "sourcePath": "F:\\Workspace\\Ethereum\\newaltf4\\contracts\\Donor.sol",
  "compiler": {
    "name": "solc",
    "version": "0.5.16+commit.9c3226ce.Emscripten.clang"
  },
  "schemaVersion": "3.1.0",
  "updatedAt": "2020-07-22T23:56:24.896Z",
  "networkType": "ethereum",
  "devdoc": {
    "methods": {}
  },
  "userdoc": {
    "methods": {}
  }
}